:100000000C9434000C9451000C9451000C94510049
:100010000C9451000C9451000C94CC020C9451009F
:100020000C9451000C9451000C9451000C9451000C
:100030000C9451000C9451000C9454030C945100F6
:100040000C9451000C9451000C9439050C941D062D
:100050000C9451000C9462010C9451000C945100CA
:100060000C9482080C94510011241FBECFEFD8E0ED
:10007000DEBFCDBF11E0A0E0B1E0E8E1F9E102C0F0
:1000800005900D92A632B107D9F722E0A6E2B1E0C1
:1000900001C01D92AD37B207E1F70E9413040C9422
:1000A0008A0C0C940000429808955C9808955C9A1C
:1000B00008958BB18295817091E089270895FB01A5
:1000C000808380912D0181838BE0828386E7858305
:1000D00087E5868388E5878383E580879EE491872B
:1000E000828708950F931F93CF93DF93CDB7DEB729
:1000F000A9970FB6F894DEBF0FBECDBF8E01075D86
:100100001F4F20E044E1BE016B5E7F4F81E692E02D
:100110000E940308882309F4B7C090912D018E89AD
:10012000891709F4B1C08D898F3F11F09813ACC0C5
:1001300010E080E090E02F89121778F42DEF210F66
:10014000223048F0E5E1F0E0EC0FFD1FE10FF11D7A
:1001500060810E9458071F5FEECF492F5527298DD8
:1001600030E04217530709F08FC09927288D30E0FF
:100170008217930709F088C08A8D813459F48E89DB
:10018000898380912D018A8386E08B8381E68E832B
:1001900046E062C0873509F043C08E89898388E0D4
:1001A0008B8387E78E838B8D6C8D90E00E947C0C17
:1001B0008B8D8F839C8D9887811106C080E090E0A5
:1001C0000E94740C80932D0180912D018A834B81B4
:1001D000BE016F5F7F4F87E692E00E9400088B8D23
:1001E000811107C080E090E00E94740C80932D0183
:1001F0004BC08250823008F047C082E090E00E94FD
:10020000740C182F83E090E00E94740C212F30E0D2
:10021000322F2227282B309301012093000134C074
:10022000823589F48E89898380912D018A8388E0C3
:100230008B8382E78E838B8D8F8390E00E94740C7A
:10024000888748E009C0863579F4BE016F5F7F4F2B
:100250008E890E945F004B81BE016F5F7F4F87E6F2
:1002600092E00E94000810C0883571F4F894A895B7
:1002700084B7877F84BF809160008861809360002D
:1002800088E080936000FFCFA9960FB6F894DEBF98
:100290000FBECDBFDF91CF911F910F9108951092A6
:1002A0002C0110922B0110922A0180E880BF87E474
:1002B00080937C0087E180937A0010927B001092FB
:1002C0007E0008951F920F920FB60F9211242F9364
:1002D0003F938F939F932091780030917900809184
:1002E0002B0190912C01820F931F90932C018093EE
:1002F0002B0180912A018F5F80932A01883028F09A
:1003000080917A00877580937A009F918F913F91B9
:100310002F910F900FBE0F901F90189510922C01E7
:1003200010922B0110922A01EAE7F0E08081886F99
:1003300080830895CF93DF9300D000D0CDB7DEB790
:10034000CE01019624E0FC0111922A95E9F720E9FB
:10035000298321E02A832EE02B8320E22C8341E0B5
:1003600064E00E942A090E9426098111FCCF82E0E4
:10037000809329010F900F900F900F90DF91CF91F4
:100380000895EF92FF920F931F93CF93DF93CDB712
:10039000DEB727970FB6F894DEBF0FBECDBF8C0136
:1003A000CE0101967C0187E0F70111928A95E9F769
:1003B00080E9898340E062E0C7010E942A0981E95F
:1003C000898341E063E0C7010E942A0963E0C70115
:1003D0000E945C096A8170E0762F66278B81680F26
:1003E000711D072E000C880B990B0E946B0B20E0EF
:1003F00030E040E05CE30E94F70BF801608371831A
:100400008283938380E027960FB6F894DEBF0FBEF9
:10041000CDBFDF91CF911F910F91FF90EF90089585
:10042000909528E031E397FF03C0990F932701C00F
:10043000990F2150C1F7892798E021E387FF03C076
:10044000880F822701C0880F9150C1F70895CF937C
:10045000DF9300D01F92CDB7DEB7CE01019623E027
:10046000FC0111922A95E9F728E8298324E22A83DE
:1004700041E063E00E942A090E9426098111FCCF15
:1004800082E0809328010F900F900F90DF91CF9121
:100490000895BF92CF92DF92EF92FF920F931F9336
:1004A000CF93DF93CDB7DEB727970FB6F894DEBFB3
:1004B0000FBECDBF6C017B018E010F5F1F4F87E028
:1004C000F80111928A95E9F789E8898341E067E0AC
:1004D000C8010E942A0967E0C8010E945C096A817C
:1004E0007B81162F072FBC80C8010E941002B81212
:1004F00018C0B80180E090E00E94690B2CE23EE356
:100500004BEB53E40E94F70A20E030E044E352E46E
:100510000E948A0AF6016083718382839383D12CBF
:1005200007C0F6011082118212821382DD24D39457
:100530006D817E81162F072FCF80C8010E94100287
:10054000C81211C0B80180E090E00E94690B26E655
:1005500036ED43E254E40E94F70AF70160837183A9
:100560008283938308C0F701108211821282138262
:10057000FD2DF260DF2E8D2D27960FB6F894DEBF8D
:100580000FBECDBFDF91CF911F910F91FF90EF90E4
:10059000DF90CF90BF9008951F920F920FB60F92E9
:1005A00011248F9381E0809327018F910F900FBECC
:1005B0000F901F901895BC0140E050E04617570778
:1005C00008F04EC09B01241B350B2130310591F002
:1005D0002430310590F02630310590F02B30310574
:1005E00090F02531310590F02932310590F021EE5F
:1005F00090E511C023EC91E00EC024EC93E00BC019
:1006000025EC95E008C026EC9AE005C027EC94E1C3
:1006100002C020EE98E2F89433B7317F346033BFE4
:1006200083B7816083BFA89534B7377F34BF3091DB
:1006300060003861309360002093600078941092DD
:10064000270180912701811102C08895FACFA895D2
:1006500020916000206420936000490F511DAECFAF
:1006600083B78E7F83BFF894A8959EE088E10FB68C
:10067000F894A895809360000FBE90936000A895B1
:100680007894CA01089516BC8CE687BD10920C02BE
:1006900010920B0282E084BD85E085BDEEE6F0E0BD
:1006A00080818260808308951F920F920FB60F920F
:1006B00011248F939F9380912E018F5F8A3018F4BD
:1006C00080932E0126C010922E0180910B029091F2
:1006D0000C02019690930C0280930B0280912901E9
:1006E000882329F0809129018150809329018091EC
:1006F0002801882329F080912801815080932801C6
:1007000080912601882329F08091260181508093D1
:1007100026019F918F910F900FBE0F901F901895FB
:10072000CF9314BE9EE088E10FB6F894A89580930D
:1007300060000FBE90936000A89514B88FEF85B944
:1007400094E097B988B9429884E38AB98FED8BB960
:1007500080E090E00E94740C9FEF980F9E3F60F045
:1007600083E080932D0163E080E090E00E947C0CA8
:1007700080E090E00E94740C80932D0144E067EBD0
:1007800071E087E692E00E948C0744E06DE072E041
:1007900081E692E00E948C070E944F0683E090E081
:1007A0000E94740CC82F82E090E00E94740C2C2FE1
:1007B00030E0A901582BCA01509301014093000178
:1007C0000196D1F46CE283E090E00E947C0C61E041
:1007D00082E090E00E947C0C83E090E00E94740C28
:1007E000C82F82E090E00E94740C2C2F30E0382B50
:1007F000309301012093000180910001909101014B
:10080000009711F481E090E0909301018093000142
:100810000E9453000E9457000E9415090E944F0138
:10082000CF910C945500CF93DF93CDB7DEB7A0974F
:100830000FB6F894DEBF0FBECDBF0E9490030E949A
:1008400043037894CE0101967C01BC018FEF0E9496
:100850005F004B81B70187E692E00E94000800E14B
:1008600010E084E1B82EAA24AA949FE0992E23E5F3
:10087000822E38EFC32ED12C43E0742EA89581E64A
:1008800092E00E94A20781110E94720000331105BC
:1008900009F474C070F40031110509F456C0003237
:1008A000110509F45BC001151105B1F100E010E07C
:1008B000E5CF0035110509F4C9C028F4003411054D
:1008C00009F4B5C0F3CF0036110509F4C6C00037EE
:1008D000110561F70E9457008FB7F89400910B0241
:1008E00010910C028FBF809164008D6E8093640024
:1008F0008091000190910101801B910B0E94DB020D
:10090000800F911F2FB7F89490930C0280930B02E5
:100910002FBF00E610E0B2CF9FB7F89440910B02D2
:1009200050910C02209100013091010142175307B0
:1009300010F49FBFA3CF8FB7F89410920C021092BF
:100940000B028FBF00E110E0F4CF0E948E010E94E5
:100950009A010E94270200E210E090CF80912A01C4
:10096000883008F48BCF80912901811187CF809145
:100970002801811183CF00E310E080CF1D8E1E8EF1
:100980001F8E18A2198E1A8E1B8E1C8E1D8A1E8A0F
:100990001F8A188EF7018B2D11928A95E9F7CE01E7
:1009A00045960E94C101BE01675E7F4FCE014D9604
:1009B0000E9449028D899E892F89388D40912D0191
:1009C0004A83A9829B828E823F83288799878A8760
:1009D000698D7A8D8B8D9C8D0E9473099B878C8786
:1009E0006D8D7E8D8F8D98A10E9473099D878E8756
:1009F00080912B0190912C01B6010E94760A6F879D
:100A00004B81B70187E692E00E94000800E410E005
:100A100035CF0E945900811108C00E945500ECECAE
:100A2000F0E43197F1F700C000000E94820687E6EB
:100A300092E00E94A2078111ECCF0E947E068111F4
:100A40001DCF7092260100E510E018CF809126019D
:100A5000811114CF00E710E011CF809164008E75F2
:100A6000809364000E944F010E9453000E94150968
:100A70001DCF1F920F920FB60F9211242F933F9309
:100A80004F935F936F937F938F939F93AF93BF9396
:100A9000EF93FF938091C000887141F08091C60070
:100AA0008093730110927301109230019091C600EF
:100AB000809130019D37C9F09E37E9F4109273019F
:100AC00020E4E4E7F1E0DF011D922A95E9F7826076
:100AD00080933001E091730181E08E0F8093730168
:100AE000F0E0EC58FE4F908397C081FF95C0816085
:100AF0008093300191C081FF8FC080FF05C020E24C
:100B000092278E7F80933001809173018F33A0F400
:100B1000E091730181E08E0F80937301F0E0EC5857
:100B2000FE4F9083809173018430A9F48091760107
:100B30008C5F80932F010FC0809130018D7F809357
:100B400030011092730180E4E4E7F1E0DF011D92CF
:100B50008A95E9F761C080917301853008F45CC023
:100B60002091730180912F01281356C083E0809358
:100B7000730180E090917301921768F4E091730122
:100B8000F0E0EC58FE4F9081890F909173019F5FC8
:100B900090937301EFCF8F3FA1F588E080937301AD
:100BA00080917701803819F0813821F02AC08EE0D9
:100BB00080937301E0917301F0E0EE58FE4F2081C5
:100BC000E0917301F0E0EC58FE4F8281843138F4FB
:100BD000E0917301F0E0EC58FE4F428101C044E126
:100BE0006091730170E06C587E4F81E692E00E9444
:100BF000B307E0917301F0E0EE58FE4F80818093DF
:100C0000030180E4E4E7F1E0DF011D928A95E9F752
:100C10001092730110923001FF91EF91BF91AF914B
:100C20009F918F917F916F915F914F913F912F9104
:100C30000F900FBE0F901F9018951F920F920FB636
:100C40000F9211248F939F93EF93FF93A8954B9945
:100C5000FDCFE091320181E08E0F80933201F0E010
:100C6000ED5CFE4F80818093C600909132018091AF
:100C70003101981720F480913201803438F080914E
:100C8000C1008F7D8093C10010923201FF91EF91DE
:100C90009F918F910F900FBE0F901F9018958FEF1F
:100CA00080930301529A5A988AB18C7F8AB95398DB
:100CB0001092730180E4E4E7F1E0DF01982F1D92C8
:100CC0009A95E9F710923201E3E3F1E0DF011D921A
:100CD0008A95E9F785E090E09093C5008093C40081
:100CE0001092C0001092C10086E08093C200A895C7
:100CF0004B99FDCF88E98093C10008958091C10090
:100D000080720895AF92BF92DF92EF92FF920F939D
:100D10001F93CF93DF93CDB7DEB76E970FB6F894DE
:100D2000DEBF0FBECDBF87E692E00E94A207082F6C
:100D3000882309F4ACC08091C100082F007285FDA2
:100D4000A5C0CE0101967C018EE1D7011D928A9546
:100D5000E9F78EE7898381E08C838FEF8E838F8321
:100D600021E046E1BE01675F7F4F87E692E00E9487
:100D700063081B8585E0810F8B83153028F487E697
:100D800092E00E946C0883C0570180E090E0D12C73
:100D90002DEF2D0D223020F0F50160850E945807BF
:100DA000D394FFEFAF1ABF0A1D11F2CF8C879D8736
:100DB00020E033E0812F90E0BC01695F7F4F432F3B
:100DC00050E0641775073CF0F701E40FF51F408110
:100DD000240F3F5FF4CF0896F701E80FF91F209525
:100DE00020831092310120E4E3E3F1E0DF011D9262
:100DF0002A95E9F7E091310121E02E0F209331018E
:100E0000F0E0ED5CFE4F2EE7208341E05DE760E21D
:100E1000242F30E0821793076CF1F701E20FF31FE4
:100E20002081233141F018F42131C1F404C033E8AA
:100E3000320F323098F4E091310131E03E0F3093BF
:100E40003101F0E0ED5CFE4F5083E091310131E083
:100E50003E0F30933101F0E0262707C0E0913101C9
:100E600031E03E0F30933101F0E0ED5CFE4F208326
:100E70004F5FCECF1092320187E692E00E946C085D
:100E80008091C10080628093C10001C001E0802F89
:100E90006E960FB6F894DEBF0FBECDBFDF91CF9137
:100EA0001F910F91FF90EF90DF90BF90AF9008954A
:100EB000492F46279295907F382F3295307F429563
:100EC0004F7050E082958F70892BFA01EB5EFE4FD8
:100ED00020818227FA01EB5FFE4F90819327282F14
:100EE00022958295807F392F3295307F62276F70EF
:100EF00070E092959F70892BFB01EB5EFE4F908115
:100F0000892790E0982F8827FB01EB5FFE4F208117
:100F10002327820F911D0895CF93FC01CB01CFB7FA
:100F2000F89474836383458311821082128225E1D1
:100F3000429FA001112460E070E00E946D0CCFBFC1
:100F4000CF910895FC018281882311F08581089555
:100F50002FB7F89480819181891B65810E946A0A6C
:100F60002FBF892F0895DF92EF92FF920F931F9367
:100F7000CF93DF93FC013281311139C0453108F044
:100F800044E1D22EEC018881EB80FC80F5E18F9F5B
:100F9000E00CF11C1124042F10E0A801C7010E94ED
:100FA000640C44E150E0401B510B60E070E0C7016D
:100FB000800F911F0E946D0C8881EB81FC8195E16F
:100FC000899FE00DF11D1124D48A88818F5F888369
:100FD0009D81891708F018828FB7F894288199812C
:100FE000291302C091E09A838FBF81E001C080E0A5
:100FF000DF91CF911F910F91FF90EF90DF900895B7
:1010000020E00C94B307CF92DF92EF92FF920F9300
:101010001F93CF93DF93EC016B01F42EE22E50E08F
:1010200060E070E0C6010E946D0C0115110511F021
:10103000F8011082CE010E94A2078823D9F16B81AA
:101040007C818981FB0195E1899FE00DF11D1124CF
:101050008281F81640F08981FB0195E1899FE00DBE
:10106000F11D1124F28089814F2D50E0E5E18E9F22
:10107000600D711D1124C6010E94640C011511053B
:1010800059F08981EB81FC8195E1899FE00DF11D8B
:1010900011248489F8018083E1100BC09FB7F89474
:1010A00089818F5F89832D81821708F019821A82C6
:1010B0009FBF81E0DF91CF911F910F91FF90EF9043
:1010C000DF90CF9008950F931F9300E010E00E94EF
:1010D00003081F910F910895CF93DF93EC010E94B5
:1010E000A207882361F09FB7F89489818F5F898375
:1010F0002D81821708F019821A829FBF81E0DF914B
:10110000CF9108951F920F920FB60F9211242F9333
:101110003F938F939F93EF93FF938091B9008C7FC0
:10112000803309F468C070F4883161F128F48830A4
:1011300039F1803129F166C0803209F45CC088320F
:1011400009F160C0883409F456C038F4883309F4D2
:1011500050C0803409F43FC055C0803581F18835D6
:1011600009F050C0E091B501F0E08091BB00E35977
:10117000FD4F80838091B40181608093B40140C0B1
:101180001092B5019091B5018091B601981768F45D
:10119000E091B50181E08E0F8093B501F0E0E35955
:1011A000FD4F80818093BB0022C08091B40181609B
:1011B0008093B4018091B40181FF29C021C0E091E6
:1011C000B50181E08E0F8093B501F0E08091BB0006
:1011D000E359FD4F80832091B50130E08091B60145
:1011E00090E001972817390714F485EC11C085E8C1
:1011F0000FC085EA0DC08091B9008C7F80930401F7
:1012000084E906C08091B9008C7F8093040184E05A
:101210008093BC00FF91EF919F918F913F912F910F
:101220000F900FBE0F901F9018951092B40188EF89
:101230008093040185E08093B8001092B9008FEF8D
:101240008093BB0084E08093BC0008958091BC0033
:1012500081700895CF93DF93D42F2091BC0020FD9F
:10126000FCCFCFB7F8946093B601FC0120812093A6
:101270006D0220916D0220FD0BC0462F50E04150C1
:101280005109BC016F5F7F4F8EE692E00E94640CB3
:1012900088EF809304011092B401D11107C0CFBF31
:1012A00085EA8093BC00DF91CF9108958091B401CD
:1012B00082608093B401F3CFCF932091BC0020FDD6
:1012C000FCCFCFB7F8942091B40120FF06C0462F81
:1012D00050E06DE672E00E94640CCFBF8091B401D3
:1012E0008170CF9108954F925F926F927F928F920B
:1012F0009F92AF92BF92CF92DF92EF92FF920F93A5
:101300001F93CF93DF93CDB7DEB728970FB6F8942E
:10131000DEBF0FBECDBF4B015C01A7E1B694A79421
:1013200097948794AA95D1F79924AA24BB246C0199
:10133000EE24FF24A7019601222730784427552761
:101340002D833E834F8358879B01AC014F775527F0
:1013500029833A834B835C83750164013FE7C31A99
:10136000D108E108F10840E8C416D104E104F10411
:1013700081F449815A816B817C81FDE07595679587
:1013800057954795FA95D1F78D819E81842B952BA2
:1013900008C050E1C516D104E104F10424F08D81A8
:1013A0009E819C6780C022EFC2162FEFD206E20614
:1013B000F2060CF442C02B013C013FE353226624A9
:1013C0007724411440E1540661047104F1F450E7BC
:1013D000851A9108A108B1083AE0880C991CAA1C4A
:1013E000BB1C3A95D1F749815A816B817C81EDE034
:1013F0007595679557954795EA95D1F78D819E81AB
:10140000842B952B882999294EC08FE0C80ED11CBA
:10141000DC2CCC24DD0CDD0C49815A816B817C8174
:10142000505F6F4F7F4F2DE07595679557954795A6
:101430002A95D1F74C0D5D1D2FC028EEC2162FEF57
:10144000D206E206F2066CF149815A816B817C81F9
:10145000606882EF9FEFAFEFBFEF8C199D09AE0977
:10146000BF0904C075956795579547958A95D2F73A
:10147000DB01CA019F73AA27BB2781159041A105F3
:10148000B10519F0505F6F4F7F4F8DE075956795EF
:10149000579547958A95D1F78D819E81842B952B01
:1014A00002C08D819E8128960FB6F894DEBF0FBED4
:1014B000CDBFDF91CF911F910F91FF90EF90DF9003
:1014C000CF90BF90AF909F908F907F906F905F90E4
:1014D0004F900895991B79E004C0991F961708F062
:1014E000961B881F7A95C9F780950895AA1BBB1B88
:1014F00051E107C0AA1FBB1FA617B70710F0A61B14
:10150000B70B881F991F5A95A9F780959095BC0134
:10151000CD0108955058BB27AA270E94A20A0C9417
:10152000BD0B0E94AF0B38F00E94B60B20F039F4CF
:101530009F3F19F426F40C94AC0B0EF4E095E7FBF6
:101540000C94A60BE92F0E94CE0B58F3BA17620732
:1015500073078407950720F079F4A6F50C94F00B37
:101560000EF4E0950B2EBA2FA02D0B01B9019001BE
:101570000C01CA01A0011124FF27591B99F0593F02
:1015800050F4503E68F11A16F040A22F232F342F4A
:101590004427585FF3CF469537952795A795F04098
:1015A0005395C9F77EF41F16BA0B620B730B840BAD
:1015B000BAF09150A1F0FF0FBB1F661F771F881F65
:1015C000C2F70EC0BA0F621F731F841F48F48795BD
:1015D00077956795B795F7959E3F08F0B0CF9395AF
:1015E000880F08F09927EE0F9795879508950E9428
:1015F0000B0B0C94BD0B0E94B60B58F00E94AF0B66
:1016000040F029F45F3F29F00C94A60B51110C9483
:10161000F10B0C94AC0B0E94CE0B68F39923B1F341
:10162000552391F3951B550BBB27AA276217730708
:10163000840738F09F5F5F4F220F331F441FAA1F9C
:10164000A9F335D00E2E3AF0E0E832D09150504058
:10165000E695001CCAF72BD0FE2F29D0660F771F06
:10166000881FBB1F261737074807AB07B0E809F0EC
:10167000BB0B802DBF01FF2793585F4F3AF09E3F71
:10168000510578F00C94A60B0C94F10B5F3FE4F33A
:10169000983ED4F3869577956795B795F7959F5FB4
:1016A000C9F7880F911D9695879597F90895E1E000
:1016B000660F771F881FBB1F621773078407BA075F
:1016C00020F0621B730B840BBA0BEE1F88F7E095BA
:1016D0000895E89409C097FB3EF490958095709525
:1016E00061957F4F8F4F9F4F9923A9F0F92F96E96E
:1016F000BB279395F695879577956795B795F111E3
:10170000F8CFFAF4BB0F11F460FF1BC06F5F7F4F7F
:101710008F4F9F4F16C0882311F096E911C0772391
:1017200021F09EE8872F762F05C0662371F096E89A
:10173000862F70E060E02AF09A95660F771F881F69
:10174000DAF7880F9695879597F9089597F99F6727
:1017500080E870E060E008959FEF80EC0895002439
:101760000A941616170618060906089500240A9406
:1017700012161306140605060895092E0394000C8C
:1017800011F4882352F0BB0F40F4BF2B11F460FF1B
:1017900004C06F5F7F4F8F4F9F4F089557FD905844
:1017A000440F551F59F05F3F71F04795880F97FB25
:1017B000991F61F09F3F79F08795089512161306DF
:1017C0001406551FF2CF4695F1DF08C0161617060E
:1017D0001806991FF1CF8695710561050894089543
:1017E000E894BB2766277727CB0197F908950E94D5
:1017F0000A0C0C94BD0B0E94AF0B38F00E94B60B84
:1018000020F0952311F00C94A60B0C94AC0B112432
:101810000C94F10B0E94CE0B70F3959FC1F3950FC2
:1018200050E0551F629FF001729FBB27F00DB11D64
:10183000639FAA27F00DB11DAA1F649F6627B00DF4
:10184000A11D661F829F2227B00DA11D621F739FDD
:10185000B00DA11D621F839FA00D611D221F749FEB
:101860003327A00D611D231F849F600D211D822F32
:10187000762F6A2F11249F5750409AF0F1F0882359
:101880004AF0EE0FFF1FBB1F661F771F881F915086
:101890005040A9F79E3F510580F00C94A60B0C9484
:1018A000F10B5F3FE4F3983ED4F386957795679507
:1018B000B795F795E7959F5FC1F7FE2B880F911DB0
:1018C0009695879597F90895FB01DC0102C0019078
:1018D0000D9241505040D8F70895DC0101C06D933E
:1018E00041505040E0F70895F999FECF92BD81BD77
:1018F000F89A992780B50895262FF999FECF1FBA37
:1019000092BD81BD20BD0FB6F894FA9AF99A0FBE28
:0819100001960895F894FFCF41
:10191800140001FFF800010302070604050E0F0D6D
:101928000C09080A0B00A0E04060C08020C06020BD
:0619380080A00040E00069
:00000001FF
